:020000040800F2
:1000000048050020450100084D0100084F01000887
:1000100051010008530100085501000800000000CC
:100020000000000000000000000000005701000870
:1000300059010008000000005B0100085D01000894
:100040005F0100085F0100085F0100085F01000810
:100050005F0100085F0100085F0100085F01000800
:100060005F0100085F0100085F0100085F010008F0
:100070005F0100085F0100085F0100085F010008E0
:100080005F0100085F0100085F0100085F010008D0
:100090005F0100085F0100085F0100085F010008C0
:1000A0005F0100085F0100085F0100085F010008B0
:1000B0005F010008951300085F0100085F01000858
:1000C0005F0100085F0100085F0100085F01000890
:1000D0005F0100087D1500085F0100085F0100084E
:1000E0005F0100085F0100085F0100085F01000870
:1000F0005F0100085F0100085F0100085F01000860
:100100005F0100085F0100085F0100085F0100084F
:100110005F0100085F0100085F0100085F0100083F
:100120005F0100085F0100085F0100085F0100082F
:10013000DFF80CD000F02CF9004800474D1A0008F9
:10014000480500200648804706480047FEE7FEE7CE
:10015000FEE7FEE7FEE7FEE7FEE7FEE7FEE7FEE777
:100160003513000831010008F0B480EA0102D40F11
:100170004200B2EB410F02D20246084611464A0045
:1001800042D0C30DDDB2C1F3C752AD1A202D35DA0E
:10019000C1F3160141F4000204B15242C5F1200638
:1001A00002FA06F12A411044B3EBD05F23D0C4B168
:1001B000012DA0EBC35009DCF0BC4FF0004202EA75
:1001C000C352DBB200F5000000F0B3B8400000F10C
:1001D000807000EBC350A0F1807040EAD1704900FC
:1001E00009E0490841EAC071A0EBC35000F50000E6
:1001F000400800EBC350F0BC00F092B8614201220D
:1002000002EB4101001BF6E7F0BC704781F00041B2
:10021000AAE780F00040A7E780EA010210B502F0EB
:100220000043400022D04A001FD0010E01EB1261B2
:10023000C0F35600C2F3560240F4000042F400023C
:10024000A0FB022000047F39140400D0401C50EAB7
:10025000124001D44000491EC2B20C0604EBD0107B
:10026000401C4008802A02D003E0002010BD20F08E
:100270000100002900DA0020184310BD30B480EAE4
:10028000010202F0004530F0004221F0004013D09E
:1002900090B1C30DD40DC2F31601C0F31600E41AD9
:1002A00041F4000140F400027D34914201D3641C0A
:1002B00000E04900002C02DA30BC002070474FF407
:1002C00000000023914201D3891A034340084FEAFA
:1002D0004101F7D151B1914202D14FF0004105E007
:1002E00002D24FF0010101E06FF0010103EBC450B5
:1002F000284430BC00F014B820F00040C10DC0F319
:10030000160040F400007F2901DA0020704796298A
:1003100003DCC1F19601C8407047963988407047A8
:100320000029A8BF7047401C490008BF20F0010009
:10033000704710B4B0FA80FC00FA0CF050EA0104E7
:1003400004BF10BC704749B1CCF1200421FA04F479
:1003500011FA0CF118BF012121430843A3EB0C0152
:10036000CB1D4FEA00614FEA102042BF002010BCB5
:10037000704700EBC35010440029A4BF10BC704765
:10038000401C490008BF20F0010010BC704700006D
:10039000064C074D06E0E06840F0010394E80700D2
:1003A00098471034AC42F6D3FFF7C6FE941D000800
:1003B000B41D000821B1826842F00102826003E0AE
:1003C000826822F0010282607047000010B5044686
:1003D0001248844208D10121401500F0A3FE0021FB
:1003E000601500F09FFE17E00D48844208D10121FE
:1003F000001500F097FE0021201500F093FE0BE0A1
:100400000848844208D10121C80300F08BFE002176
:100410004FF4004000F086FE10BD000000240140B3
:1004200000280140003C0140014600208A6802F09B
:1004300004020AB1012000E0002070470146C86CA8
:1004400080B270470246002013680B400BB10120B8
:1004500000E000207047014600208A6802F0080290
:100460000AB1012000E000207047000030B50246CC
:100470000020002350680F4C20400D790C6844EA9E
:1004800005242043506090680B4C2040D1E9025471
:100490002C434D7944EA450420439060D06A20F40F
:1004A00070000C7C641EE4B2234340EA0350D06227
:1004B00030BD0000FFFEF0FFFDF7F1FFF0B5044690
:1004C0000D4600200021092D11DDE068A5F10A0686
:1004D00006EB4607072606FA07F18843A5F10A0648
:1004E00006EB460603FA06F10843E0600CE02069DB
:1004F00005EB4507072606FA07F1884305EB450695
:1005000003FA06F108432061072A0FDA606B561ED2
:1005100006EB86071F2606FA07F18843561E06EBF0
:10052000860605FA06F10843606322E00D2A0FDA19
:10053000206BD61F06EB86071F2606FA07F18843B5
:10054000D61F06EB860605FA06F10843206310E085
:10055000E06AA2F10D0606EB86071F2606FA07F1F0
:100560008843A2F10D0606EB860605FA06F108435C
:10057000E062F0BD816841F008018160704721B1FF
:10058000826842F4A002826003E0826822F4A00242
:1005900082607047816841F004018160704700000B
:1005A00000B587B001214FF4017000F0ABFD4FF4AE
:1005B000004000F07BFD0120ADF8040000208DF824
:1005C000070001A9174800F04DFC1748FFF7FEFE91
:1005D000002002908DF80C008DF80D004FF4602083
:1005E00004900020059001208DF8180002A90E4803
:1005F000FFF73CFF01210C48FFF7DCFE0A48FFF73C
:10060000B9FF00BF0848FFF726FF0028FAD10648C7
:10061000FFF7C0FF00BF0448FFF706FF0028FAD12C
:1006200007B000BD000801400024014000B587B0BC
:10063000012140F2044000F065FD4FF4004000F05D
:1006400035FD0220ADF8040000208DF8070001A957
:10065000174800F007FC1748FFF7B8FE002002908B
:100660008DF80C008DF80D004FF4602004900020F0
:10067000059001208DF8180002A90E48FFF7F6FE3C
:1006800001210C48FFF796FE0A48FFF773FF00BFF1
:100690000848FFF7E0FE0028FAD10648FFF77AFF86
:1006A00000BF0448FFF7C0FE0028FAD107B000BD24
:1006B00000080140002801402DE9F04188B00446BF
:1006C0000D4616461F46DDF838800121042000F053
:1006D00019FD0121480600F0F5FC4FF48050ADF8FB
:1006E0001C0003208DF81E0018208DF81F0007A99C
:1006F000264800F0B7FB4FF40060ADF81C0048201E
:100700008DF81F0007A9214800F0ACFB00208DF8F0
:1007100016008DF817008DF8180001208DF81900CB
:1007200000208DF81A008DF81B008DF812808DF8CE
:1007300013408DF814608DF81550ADF8107004A9B1
:10074000134800F061F900208DF80A008DF80B00C5
:1007500001208DF80C004FF4C040ADF800000020DF
:10076000ADF802004FF6FF70ADF804000020ADF8C0
:100770000600ADF8080001208DF80D00684600F075
:10078000BFF8002008B0BDE8F0810000000801407B
:100790000064004000B585B000210B4800F0BEF9B0
:1007A00010B9002005B000BD6A460021064800F0DF
:1007B000C4F90098B0F5407F03D19DF80D000349BE
:1007C00008709DF80A00EDE7006400407C000020FE
:1007D0002DE9F04188B004460D4616461F46DDF867
:1007E00038800121082000F08DFC0121880600F0EE
:1007F00069FC4FF40050ADF81C0003208DF81E007A
:1008000018208DF81F0007A9244800F02BFB4FF497
:100810008050ADF81C0048208DF81F0007A91F4824
:1008200000F020FB00208DF816008DF817008DF8E1
:10083000180001208DF8190000208DF81A008DF89D
:100840001B008DF812808DF813408DF814608DF820
:100850001550ADF8107004A9114800F0D5F80E201D
:100860008DF80A0000208DF80B0001208DF80C0097
:100870000020ADF80000ADF80200ADF80400ADF8BE
:100880000600ADF8080001208DF80D00684600F064
:1008900037F8002008B0BDE8F0810000000C0140EE
:1008A0000068004010B586B004460021124800F0F0
:1008B00035F910B9002006B010BD01AA00210E487C
:1008C00000F03BF90D490298884206D19DF81300CB
:1008D00020709DF8140060700AE00849491E0298D3
:1008E000884205D19DF81100A0709DF81200E070BB
:1008F0009DF80E00DFE7000000680040FBFFFF1FCF
:1009000010B50021837A012202FA03F13D4A1268F0
:1009100042F001023B4B1A603A4A1C3212688A4389
:10092000384B1C331A60027BCAB9364A0C32126843
:100930008A43344B0C331A604288C38842EA03432B
:10094000304A4032847A42F834300288838842EA5E
:1009500003432C4A4032847A02EBC4025360027B88
:10096000012A19D1274A0C3212680A43254B0C334D
:100970001A604288038842EA0343224A4032847A5A
:1009800042F83430C288838842EA03431D4A403229
:10099000847A02EBC4025360C27A3AB9194A121D32
:1009A00012688A43174B1B1D1A6006E0154A121D78
:1009B00012680A43134B1B1D1A60028932B9114A8F
:1009C000143212688A430F4B14331A600289012AC9
:1009D00006D10C4A143212680A430A4B14331A60C7
:1009E000427B012A06D1074A1C3212680A43054B92
:1009F0001C331A60034A126822F00102014B1A608C
:100A000010BD00000066004030B502460020002303
:100A1000146824F002041460146844F001041460A3
:100A200000E05B1C546804F001041CB94FF6FF742D
:100A3000A342F6D1546804F001040CB900206CE024
:100A40008C79012C04D1146844F08004146003E014
:100A5000146824F080041460CC79012C04D114684B
:100A600044F04004146003E0146824F0400414606F
:100A70000C7A012C04D1146844F02004146003E0C3
:100A8000146824F0200414604C7A012C04D11468FA
:100A900044F01004146003E0146824F0100414609F
:100AA0008C7A012C04D1146844F00804146003E02B
:100AB000146824F008041460CC7A012C04D1146862
:100AC00044F00404146003E0146824F00404146087
:100AD0008C78A407CD7844EA05640D7944EA05448E
:100AE0004D7944EA05540D886D1E2C43D461146879
:100AF00024F001041460002300E05B1C546804F03F
:100B000001041CB14FF6FF74A342F6D1546804F0FF
:100B100001040CB1002000E0012030BD024600209D
:100B200019B9D36803F0030006E0012903D1136962
:100B300003F0030000E00020704710B500F5D87303
:100B400003EB01131B6803F004031372137A53B908
:100B500000F5D87303EB01131B6840F2FF7404EA3D
:100B60005353136009E000F5D87303EB01131B68BE
:100B70006FF0604404EAD303536000F5D87303EBCD
:100B800001131B6803F00203537200F5D87303EBE3
:100B900001135B6803F00F03937200F5D87303EB46
:100BA00001135B681B0AD37400F5D87303EB0113C0
:100BB0009B68D37200F5D87303EB01139B681C0A82
:100BC000147300F5D87303EB01139B681C0C54736A
:100BD00000F5D87303EB01139B681B0E937300F5AC
:100BE000D87303EB0113DB68D37300F5D87303EB01
:100BF0000113DB681C0A147400F5D87303EB0113AE
:100C0000DB681C0C547400F5D87303EB0113DB682C
:100C10001B0E937421B9C36843F02003C36003E043
:100C2000036943F02003036110BD00002DE9F0418A
:100C300086B007460D4690460024CDF8048000207B
:100C40008DF80C008DF80D008DF80E5000BF05E0FA
:100C5000395D0DF10F000155601C84B2AC42F7DB29
:100C600001A90D4800F01AF80646002401E0601CB6
:100C700084B23146084800F0A5F818B940F6FF7074
:100C80008442F4DB40F6FF70844203DB012006B0AF
:100C9000BDE8F0810020FAE70064004010B502468C
:100CA0000020936803F08063B3F1806F00D110E0FF
:100CB000936803F00063B3F1006F01D1012008E0F5
:100CC000936803F08053B3F1805F01D1022000E00C
:100CD0000420042874D002F5C07303EB00131B68D2
:100CE00003F0010402F5C07303EB00131C600B7AE0
:100CF0007BB94B7A0C8843EA445302F5C07404EB89
:100D000000142468234302F5C07404EB001423602C
:100D100010E00B7A4C6843EAC4034C7A234302F593
:100D2000C07404EB00142468234302F5C07404EB80
:100D3000001423608B7A03F00F038B7202F5C073EB
:100D400003EB00135B6823F00F0402F5C07303EBA1
:100D500000135C6002F5C07303EB00135B688C7AD0
:100D6000234302F5C07404EB001463608B7B1C0604
:100D70004B7B44EA03440B7B44EA0323CC7A2343B2
:100D800002F5C07404EB0014A3608B7C1C064B7C42
:100D900044EA03440B7C44EA0323CC7B234302F55F
:100DA000C07404EB0014E36002F5C07303EB00139E
:100DB0001B6843F0010402F5C07303EB00131C60D1
:100DC00010BD000010B50246002321B1012907D053
:100DD00002290FD109E090681D4C00EA04030BE0E2
:100DE00090681C4C00EA040306E090681A4C00EA84
:100DF000040301E0002300BF00BF184C181BA342EE
:100E000016D007DC83B16FF08060184470B10228FF
:100E100018D111E0B0F5007F10D0114C204448B13A
:100E2000B0F5003F0ED10BE002230DE000230BE0F4
:100E3000002309E0002307E0012305E0012303E08C
:100E4000012301E0002300BF00BFD8B210BD0000A5
:100E50000300000400030008000003100001000864
:100E60000001FFF72DE9F041024600250026002091
:100E700000230024002791F803C00CF00F0591F81F
:100E800003C00CF0100CBCF1000F03D091F802C0AD
:100E90004CEA050591F800C0BCF1000F31D0146890
:100EA00000202BE04FF0010C0CFA00F3B1F800C069
:100EB0000CEA03069E4220D183004FF00F0C0CFA7F
:100EC00003F7BC4305FA03FC4CEA040491F803C0A1
:100ED000BCF1280F06D14FF0010C0CFA00FCC2F84F
:100EE00014C00AE091F803C0BCF1480F05D14FF0DF
:100EF000010C0CFA00FCC2F810C0401C0828D1D329
:100F00001460B1F800C0BCF1FF0F34DD546800205C
:100F10002EE000F1080C4FF0010808FA0CF3B1F8CC
:100F200000C00CEA03069E4221D183004FF00F0C53
:100F30000CFA03F7BC4305FA03FC4CEA040491F8ED
:100F400003C0BCF1280F05D100F1080C08FA0CF819
:100F5000C2F8148091F803C0BCF1480F07D100F12A
:100F6000080C4FF0010808FA0CF8C2F81080401C79
:100F70000828CED35460BDE8F08102460020D36833
:100F80000B400BB1012000E0002070474161704729
:100F90000161704710B50446072301222146094824
:100FA000FFF78CFA01210748FFF7E9FA00BF022199
:100FB0000448FFF747FA0028F9D00248FFF73EFA45
:100FC00010BD0000002401402DE9F04107460C4609
:100FD0000025002605E03846FFF7DCFF0544701CBD
:100FE000C6B2A642F7DBB5FBF4F080B2BDE8F081F3
:100FF00008B50121102000F085F840F20730ADF867
:10100000000010208DF8030003208DF802006946CF
:101010000148FFF727FF08BD0010014010B54FF44D
:10102000A06000F039F810BD70B5002100230F2238
:10103000C47804B3154C246804F4E064C4F5E06497
:10104000210AC1F10403CA40447804FA03F1847808
:101050001440214309010E4C0678A155047804F090
:101060001F050124AC4005786D11AD0005F1E025A8
:10107000C5F8004109E0047804F01F050124AC40E4
:10108000044D0678761145F8264070BD0CED00E061
:1010900000E400E080E100E002490143024A1160FF
:1010A000704700000000FA050CED00E0014600204A
:1010B000034A506820F440400843506070470000E5
:1010C0000010024029B1064AD2690243044BDA619A
:1010D00004E0034AD2698243014BDA6170470000A1
:1010E0000010024029B1064A12690243044B1A61FA
:1010F00004E0034A12698243014B1A617047000001
:101100000010024029B1064A92690243044B9A61D9
:1011100004E0034A92698243014B9A6170470000E0
:101120000010024029B1064AD2680243044BDA603B
:1011300004E0034AD2688243014BDA607047000042
:101140000010024030B500210022002400232D4D64
:101150006D6805F00C0121B1042905D0082923D1BF
:1011600005E0294D056022E0274D05601FE0254D73
:101170006D6805F47012234D6D6805F48034022506
:1011800005EB92421CB9214D554305600BE01D4D06
:101190006D6805F400351DB11C4D5543056002E036
:1011A000194D5543056002E0174D056000BF00BFB3
:1011B000144D6D6805F0F0010909154D6B5C05686B
:1011C000DD4045600F4D6D6805F4E061090A104D82
:1011D0006B5C4568DD4085600A4D6D6805F46051C3
:1011E000C90A0B4D6B5C4568DD40C560054D6D68F7
:1011F00005F44041890B074D6B5CC568B5FBF3F501
:10120000056130BD0010024000127A0000093D0067
:10121000000000201000002010B501210A48FFF74F
:10122000B5FE02210848FFF7B1FE04210648FFF78A
:10123000ADFE4FF480710448FFF7A8FE4FF4007133
:101240000148FFF7A3FE10BD0010014010B500F0EB
:1012500001F810BD0CB500200190009033480068E3
:1012600040F480303149086000BF3048006800F425
:10127000003000900198401C0190009818B9019826
:10128000B0F5A06FF1D12948006800F4003010B12A
:101290000120009001E0002000900098012843D137
:1012A0002348006840F010002149086008460068A3
:1012B00020F0030008600846006840F00200086063
:1012C0001A4840681949486008464068486008461E
:1012D000406840F4806048600846406820F47C1014
:1012E00048600846406840F4E810486008460068D6
:1012F00040F08070086000BF0C48006800F000708B
:101300000028F9D00948406820F0030007494860E8
:101310000846406840F00200486000BF034840684B
:1013200000F00C000828F9D10CBD000000100240AC
:101330000020024010B51348006840F00100114938
:10134000086008464068104908400E494860084651
:1013500000680E4908400B4908600846006820F400
:10136000802008600846406820F4FE0048604FF482
:101370001F008860FFF76AFF4FF0006004490860B3
:1013800010BD0000001002400000FFF8FFFFF6FE55
:1013900008ED00E010B50121194800F082F870B3A3
:1013A0000121174800F06EF81648FFF77BFA16493E
:1013B0000870FFF7EFF9154908701548007878B9FB
:1013C00001201349087040F2233206211148FFF72B
:1013D0002DFC4FF4497206210F48FFF727FC0EE061
:1013E00000200B49087040F2223207210B48FFF71A
:1013F0001DFC40F2293201210948FFF717FC10BDFE
:1014000000040040240000202D0000202C000020BB
:101410007D000020580000205E0000201C000020FD
:10142000140000207FB505460C4601210220FFF77D
:1014300049FEADF80850ADF804400020ADF80A00B0
:10144000ADF8060001A90E4800F046F80122114649
:101450000B4800F037F81D208DF8000001208DF8B2
:10146000010002208DF8020001208DF8030068467B
:10147000FFF7DAFD0121024800F007F87FBD000008
:1014800000040040CA430282704721B1028842F042
:101490000102028004E002884FF6FE731A400280C7
:1014A000704730B50246002000230024158A05EA63
:1014B0000103958905EA010413B10CB1012000E094
:1014C000002030BD1AB183890B43838102E08389F8
:1014D0008B43838170470000002202881D4B984295
:1014E0000ED01D4B98420BD0B0F1804F08D01B4B53
:1014F000984205D01A4B984202D01A4B984204D118
:101500004FF68F731A404B881A43174B984207D0F7
:10151000164B984204D04FF6FF431A40CB881A432B
:1015200002808B8883850B8803850A4B98420BD0F9
:10153000094B984208D00E4B984205D00D4B98426B
:1015400002D00D4B984201D10B7A0386012383828E
:1015500070470000002C01400034014000040040AE
:1015600000080040000C0040001000400014004043
:1015700000400140004401400048014010B540F2E5
:1015800025514B4800F07FF900282ED0484800F044
:1015900035FA484908704848406847490860084695
:1015A0008068486043480078886044480068401C70
:1015B000E0B9084600680D2879D1084640680A2835
:1015C00075D1084680683A2871D14FF400713C48C3
:1015D000FFF7DEFC39480068401C38490860354890
:1015E00000783849354A1268885460E032484068CB
:1015F0000D2851D1304880680A284DD12F48006805
:10160000401C2E4908602B4800782E492B4A12684E
:1016100088542A480068401C2B4908602B48006801
:10162000002831D000F0CEFA29480178204800F097
:10163000EAF9284801781E4800F0E5F926480078C4
:101640002649087026480078487026480078887037
:1016500025480078C8701F48007808711C48007839
:101660004871224800782249087022480078487062
:1016700021480078887021480078C8702048007898
:1016800008712048007848714FF0FF300B4908601E
:1016900000200D4908600AE008480068401C07491E
:1016A0000860044800780749044A1268885410BD4D
:1016B00000380140380000203C0000204C00002091
:1016C0000010014080000020500000204800002051
:1016D0006C0000206F0000206D00002058000020EA
:1016E0006A0000206E0000206B00002079000020BE
:1016F0005E000020760000207A00002077000020A5
:101700007B0000207800002021B1828942F4005241
:10171000828104E082894DF6FF731A40828170470E
:1017200000B587B0284800F053F801210420FFF7E6
:10173000E9FC4FF40070ADF8180018208DF81B007C
:1017400003208DF81A0006A92048FFF78BFB4FF401
:101750008060ADF8180004208DF81B0006A91B4816
:10176000FFF780FB01218803FFF7CCFC4FF4E13049
:1017700002900020ADF80C00ADF80E00ADF810009E
:10178000ADF814000C20ADF8120002A90E4800F0CC
:10179000C9F8012240F225510B4800F09EF80121C2
:1017A0000948FFF7B1FF25208DF8040002208DF8CD
:1017B000050001208DF806008DF8070001A8FFF74D
:1017C00033FC07B000BD00000038014000080140B4
:1017D00010B504462048844209D101218803FFF74F
:1017E000A1FC00214FF48040FFF79CFC32E01B4835
:1017F000844209D101214804FFF774FC00214FF411
:101800000030FFF76FFC25E01548844209D1012123
:101810008804FFF767FC00214FF48020FFF762FC8B
:1018200018E01048844209D10121C804FFF75AFC8E
:1018300000214FF40020FFF755FC0BE00A488442DA
:1018400008D101210805FFF74DFC00214FF480105D
:10185000FFF748FC10BD0000003801400044004084
:1018600000480040004C004000500040024600206C
:10187000B1F5007F00D100BF13880B400BB10120F0
:1018800000E00020704770B50246002400230025C8
:10189000002040F66A16B14200D100BFC1F34215E4
:1018A00001F01F03012606FA03F3012D02D19689E8
:1018B000334006E0022D02D1168A334001E0968AB9
:1018C00033400C12012606FA04F41688344013B192
:1018D0000CB1012000E0002070BDF0B503460024EB
:1018E00000260025002040F66A17B94200D100BF4B
:1018F0001846C1F3421401F01F06012707FA06F546
:10190000012C01D10C3004E0022C01D1103000E098
:1019100014301AB107682F43076002E00768AF432D
:101920000760F0BD2DE9F04786B005460E4600245D
:10193000A24600BFA1460027B08900B100BF2F46D4
:101940002C8A4CF6FF700440F08804432C82AC894A
:101950004EF6F3100440B08831890843718908437A
:101960000443AC81AC8A4FF6FF400440B089044385
:10197000AC8201A8FFF7E6FB1F48874202D1DDF8E1
:1019800010A001E0DDF80CA0A88900F4004040B1EF
:101990000AEBCA0000EB0A1031684900B0FBF1F80D
:1019A00007E00AEBCA0000EB0A1031688900B0FBBF
:1019B000F1F86420B8FBF0F004012009642101FB78
:1019C0001089A88900F4004040B1322000EBC90022
:1019D000B0FBF1F000F00700044308E0322000EB18
:1019E00009106421B0FBF1F000F00F0004432C81DA
:1019F00006B0BDE8F0870000003801400146888845
:101A0000C0F30800704770B504460D4629462046CD
:101A100000F008F800BF80212046FFF727FF0028CC
:101A2000F9D070BDC1F308028280704702E008C897
:101A3000121F08C1002AFAD170477047002001E048
:101A400001C1121F002AFBD17047000008B5FFF743
:101A5000E5FAFFF765FEFFF7CBFAFFF7DDFBFEF7D0
:101A60009FFDFEF7E3FD00200423082207210090DC
:101A7000FEF722FE00200423032211460090FEF709
:101A8000A7FE41F61F416320FFF7CCFC80E00A214E
:101A90000020FFF799FA3F490880084600883E4930
:101AA00008800A210120FFF78FFA3C490880084688
:101AB00000883B49088001213A48FFF75EFA08B1E7
:101AC000002400E0012404213648FFF756FA08B14B
:101AD000002500E001253448007860B133480078E3
:101AE0003349C8703148407808713048807848716F
:101AF0002E48C0788871284800782D490870002049
:101B0000487025480088C0F3032048700846407894
:101B10002349097801F00F0140EA01102449487077
:101B20001F480088C0F307108870224804700078AE
:101B300000EB45001F4908701F48007818B34FF4A8
:101B400000711E48FFF722FA1D48007800F00100DE
:101B500040B101211348FFF719FA02211148FFF79C
:101B600015FA07E001210F48FFF712FA02210D488C
:101B7000FFF70EFA1248007800F0040020B10421AB
:101B80000848FFF703FA03E004210648FFF700FACC
:101B90007DE700002E0000203000002032000020F1
:101BA00034000020001001402D00002024000020FF
:101BB0001C000020140000202C0000200008014020
:101BC0007C0000202DE9F84F00205D4908605D4F42
:101BD00007F1040807F1080907F10C04251D2E1D63
:101BE0004FF081412068FEF7BFFA4FF0814100902D
:101BF000FEF744FB83464FF08E41FEF70DFB824615
:101C0000FEF77AFB504908804FF081412868FEF7C3
:101C1000ABFA4FF081410090FEF730FB83464FF066
:101C20008E41FEF7F9FA8246FEF766FB47490880C7
:101C30004FF081413068FEF797FA4FF081410090F4
:101C4000FEF71CFB83464FF08E41FEF7E5FA824615
:101C5000FEF752FB3E4908803B480088000A3D4998
:101C60000870394800783C49087038480088000AF4
:101C70003A49087035480078394908703448008876
:101C8000000A3849087032480078374908703749E7
:101C90003868FEF769FA35490090FEF7EFFA834697
:101CA0004FF08E41FEF7B8FA8246FEF725FB304929
:101CB00008802E49D8F80000FEF756FA2B4900900C
:101CC000FEF7DCFA83464FF08E41FEF7A5FA824616
:101CD000FEF712FB274908802449D9F80000FEF7D7
:101CE00043FA22490090FEF7C9FA83464FF08E412D
:101CF000FEF792FA8246FEF7FFFA1F4908801C4859
:101D00000088000A1D490870194800781C490870AD
:101D100018480088000A1B490870164800781A49BC
:101D2000087015480088000A1849087012480078A1
:101D300017490870012002490860BDE8F88F0000CB
:101D4000480000208B000020640000206600002076
:101D5000680000206A0000206D0000206B00002059
:101D60006E0000206C0000206F0000200000754312
:101D70007000002072000020740000207600002017
:101D800079000020770000207A00002078000020F1
:101D90007B000020B41D000800000020800000002F
:101DA0002C1A0008341E000880000020C80400001F
:101DB0003C1A0008000000000102030401020304B1
:101DC00006070809020406080000000000000000E1
:101DD0000000000000000000000000000000000003
:101DE00000000000000000000000000011000000E2
:101DF00001000000020000000300000001000000DC
:101E0000FFFFFFFF000000000000000000000000D6
:101E10000000000000000000010001000300444435
:101E2000443333330000000000002222221111113C
:041E300000000000AE
:0400000508000131BD
:00000001FF
